{
  "contractName": "Election",
  "abi": [
    {
      "constant": true,
      "inputs": [],
      "name": "candidatesCount",
      "outputs": [
        {
          "name": "",
          "type": "uint256"
        }
      ],
      "payable": false,
      "stateMutability": "view",
      "type": "function",
      "signature": "0x2d35a8a2"
    },
    {
      "constant": true,
      "inputs": [],
      "name": "isElectionStarted",
      "outputs": [
        {
          "name": "",
          "type": "bool"
        }
      ],
      "payable": false,
      "stateMutability": "view",
      "type": "function",
      "signature": "0x320ad296"
    },
    {
      "constant": true,
      "inputs": [
        {
          "name": "",
          "type": "uint256"
        }
      ],
      "name": "candidates",
      "outputs": [
        {
          "name": "id",
          "type": "uint256"
        },
        {
          "name": "name",
          "type": "string"
        },
        {
          "name": "voteCount",
          "type": "uint256"
        }
      ],
      "payable": false,
      "stateMutability": "view",
      "type": "function",
      "signature": "0x3477ee2e"
    },
    {
      "constant": true,
      "inputs": [
        {
          "name": "",
          "type": "address"
        }
      ],
      "name": "voters",
      "outputs": [
        {
          "name": "",
          "type": "bool"
        }
      ],
      "payable": false,
      "stateMutability": "view",
      "type": "function",
      "signature": "0xa3ec138d"
    },
    {
      "anonymous": false,
      "inputs": [
        {
          "indexed": true,
          "name": "_candidateId",
          "type": "uint256"
        }
      ],
      "name": "votedEvent",
      "type": "event",
      "signature": "0xfff3c900d938d21d0990d786e819f29b8d05c1ef587b462b939609625b684b16"
    },
    {
      "constant": false,
      "inputs": [
        {
          "name": "_name",
          "type": "string"
        }
      ],
      "name": "addCandidate",
      "outputs": [],
      "payable": false,
      "stateMutability": "nonpayable",
      "type": "function",
      "signature": "0x462e91ec"
    },
    {
      "constant": false,
      "inputs": [
        {
          "name": "decision",
          "type": "bool"
        }
      ],
      "name": "ElectionControl",
      "outputs": [],
      "payable": false,
      "stateMutability": "nonpayable",
      "type": "function",
      "signature": "0x42c9a21d"
    },
    {
      "constant": false,
      "inputs": [
        {
          "name": "_candidateId",
          "type": "uint256"
        }
      ],
      "name": "vote",
      "outputs": [],
      "payable": false,
      "stateMutability": "nonpayable",
      "type": "function",
      "signature": "0x0121b93f"
    }
  ],
  "bytecode": "0x60806040526000600360006101000a81548160ff02191690831515021790555034801561002b57600080fd5b506106d58061003b6000396000f3fe608060405260043610610083576000357c0100000000000000000000000000000000000000000000000000000000900463ffffffff1680630121b93f146100885780632d35a8a2146100c3578063320ad296146100ee5780633477ee2e1461011d57806342c9a21d146101df578063462e91ec1461021c578063a3ec138d146102e4575b600080fd5b34801561009457600080fd5b506100c1600480360360208110156100ab57600080fd5b810190808035906020019092919050505061034d565b005b3480156100cf57600080fd5b506100d861046f565b6040518082815260200191505060405180910390f35b3480156100fa57600080fd5b50610103610475565b604051808215151515815260200191505060405180910390f35b34801561012957600080fd5b506101566004803603602081101561014057600080fd5b8101908080359060200190929190505050610488565b6040518084815260200180602001838152602001828103825284818151815260200191508051906020019080838360005b838110156101a2578082015181840152602081019050610187565b50505050905090810190601f1680156101cf5780820380516001836020036101000a031916815260200191505b5094505050505060405180910390f35b3480156101eb57600080fd5b5061021a6004803603602081101561020257600080fd5b8101908080351515906020019092919050505061054a565b005b34801561022857600080fd5b506102e26004803603602081101561023f57600080fd5b810190808035906020019064010000000081111561025c57600080fd5b82018360208201111561026e57600080fd5b8035906020019184600183028401116401000000008311171561029057600080fd5b91908080601f016020809104026020016040519081016040528093929190818152602001838380828437600081840152601f19601f820116905080830192505050505050509192919290505050610567565b005b3480156102f057600080fd5b506103336004803603602081101561030757600080fd5b81019080803573ffffffffffffffffffffffffffffffffffffffff1690602001909291905050506105e4565b604051808215151515815260200191505060405180910390f35b6000803373ffffffffffffffffffffffffffffffffffffffff1673ffffffffffffffffffffffffffffffffffffffff16815260200190815260200160002060009054906101000a900460ff161515156103a557600080fd5b6000811180156103b757506002548111155b15156103c257600080fd5b60016000803373ffffffffffffffffffffffffffffffffffffffff1673ffffffffffffffffffffffffffffffffffffffff16815260200190815260200160002060006101000a81548160ff0219169083151502179055506001600082815260200190815260200160002060020160008154809291906001019190505550807ffff3c900d938d21d0990d786e819f29b8d05c1ef587b462b939609625b684b1660405160405180910390a250565b60025481565b600360009054906101000a900460ff1681565b6001602052806000526040600020600091509050806000015490806001018054600181600116156101000203166002900480601f01602080910402602001604051908101604052809291908181526020018280546001816001161561010002031660029004801561053a5780601f1061050f5761010080835404028352916020019161053a565b820191906000526020600020905b81548152906001019060200180831161051d57829003601f168201915b5050505050908060020154905083565b80600360006101000a81548160ff02191690831515021790555050565b600260008154809291906001019190505550606060405190810160405280600254815260200182815260200160008152506001600060025481526020019081526020016000206000820151816000015560208201518160010190805190602001906105d3929190610604565b506040820151816002015590505050565b60006020528060005260406000206000915054906101000a900460ff1681565b828054600181600116156101000203166002900490600052602060002090601f016020900481019282601f1061064557805160ff1916838001178555610673565b82800160010185558215610673579182015b82811115610672578251825591602001919060010190610657565b5b5090506106809190610684565b5090565b6106a691905b808211156106a257600081600090555060010161068a565b5090565b9056fea165627a7a723058209b3e47dcee029593165de411bdfbceab5391894a0d935c92631426e2a8a6d3660029",
  "source": "pragma solidity >=0.4.24 <0.6.0;\n\ncontract Election {\n    // Model a Candidate\n    struct Candidate {\n        uint id;\n        string name;\n        uint voteCount;\n    }\n\n    // Store accounts that have voted\n    mapping(address => bool) public voters;\n    // Store Candidates\n    // Fetch Candidate\n    mapping(uint => Candidate) public candidates;\n    // Store Candidates Count\n    uint public candidatesCount;\n\n    bool public isElectionStarted = false;\n\n    // voted event\n    event votedEvent (\n        uint indexed _candidateId\n    );\n\n    /*function Election () public {\n        //addCandidate(\"Candidate 1\");\n        //addCandidate(\"Candidate 2\");\n    }*/\n\n    function addCandidate (string memory _name) public {\n        candidatesCount ++;\n        candidates[candidatesCount] = Candidate(candidatesCount, _name, 0);\n    }\n\n    function ElectionControl(bool decision) public {\n        isElectionStarted = decision;\n    }\n\n    function vote (uint _candidateId) public {\n        // require that they haven't voted before\n        require(!voters[msg.sender]);\n\n        // require a valid candidate\n        require(_candidateId > 0 && _candidateId <= candidatesCount);\n\n        // record that voter has voted\n        voters[msg.sender] = true;\n\n        // update candidate vote Count\n        candidates[_candidateId].voteCount ++;\n\n        // trigger voted event\n        emit votedEvent(_candidateId);\n    }\n}\n",
  "sourcePath": "E:/Final Year proj's/voting/contracts/Election.sol",
  "compiler": {
    "name": "solc",
    "version": "0.5.0+commit.1d4f565a.Emscripten.clang"
  },
  "schemaVersion": "3.0.1",
  "updatedAt": "2019-01-31T13:14:06.039Z",
  "devdoc": {
    "methods": {}
  },
  "userdoc": {
    "methods": {}
  }
}