{
  "contractName": "Election",
  "abi": [
    {
      "constant": true,
      "inputs": [],
      "name": "candidatesCount",
      "outputs": [
        {
          "name": "",
          "type": "uint256"
        }
      ],
      "payable": false,
      "stateMutability": "view",
      "type": "function",
      "signature": "0x2d35a8a2"
    },
    {
      "constant": true,
      "inputs": [],
      "name": "isElectionStarted",
      "outputs": [
        {
          "name": "",
          "type": "bool"
        }
      ],
      "payable": false,
      "stateMutability": "view",
      "type": "function",
      "signature": "0x320ad296"
    },
    {
      "constant": true,
      "inputs": [
        {
          "name": "",
          "type": "uint256"
        }
      ],
      "name": "candidates",
      "outputs": [
        {
          "name": "id",
          "type": "uint256"
        },
        {
          "name": "name",
          "type": "string"
        },
        {
          "name": "voteCount",
          "type": "uint256"
        }
      ],
      "payable": false,
      "stateMutability": "view",
      "type": "function",
      "signature": "0x3477ee2e"
    },
    {
      "constant": true,
      "inputs": [
        {
          "name": "",
          "type": "uint256"
        }
      ],
      "name": "votersAddress",
      "outputs": [
        {
          "name": "",
          "type": "address"
        }
      ],
      "payable": false,
      "stateMutability": "view",
      "type": "function",
      "signature": "0x43242daa"
    },
    {
      "constant": true,
      "inputs": [
        {
          "name": "",
          "type": "address"
        }
      ],
      "name": "voters",
      "outputs": [
        {
          "name": "",
          "type": "bool"
        }
      ],
      "payable": false,
      "stateMutability": "view",
      "type": "function",
      "signature": "0xa3ec138d"
    },
    {
      "anonymous": false,
      "inputs": [
        {
          "indexed": true,
          "name": "_candidateId",
          "type": "uint256"
        }
      ],
      "name": "votedEvent",
      "type": "event",
      "signature": "0xfff3c900d938d21d0990d786e819f29b8d05c1ef587b462b939609625b684b16"
    },
    {
      "anonymous": false,
      "inputs": [],
      "name": "resetEvent",
      "type": "event",
      "signature": "0xde63ea00669770dea2f85e87d5bb89633a75dc9e6e099dd332f0a5666bed9e02"
    },
    {
      "anonymous": false,
      "inputs": [
        {
          "indexed": false,
          "name": "ElectionStatus",
          "type": "bool"
        }
      ],
      "name": "controlEvent",
      "type": "event",
      "signature": "0xe0178d14156199d090fcf56ef0b2e2fd7879f90e74fecdbf5fc8236d4587119c"
    },
    {
      "constant": false,
      "inputs": [
        {
          "name": "_name",
          "type": "string"
        }
      ],
      "name": "addCandidate",
      "outputs": [],
      "payable": false,
      "stateMutability": "nonpayable",
      "type": "function",
      "signature": "0x462e91ec"
    },
    {
      "constant": false,
      "inputs": [
        {
          "name": "decision",
          "type": "bool"
        }
      ],
      "name": "ElectionControl",
      "outputs": [],
      "payable": false,
      "stateMutability": "nonpayable",
      "type": "function",
      "signature": "0x42c9a21d"
    },
    {
      "constant": false,
      "inputs": [
        {
          "name": "_candidateId",
          "type": "uint256"
        }
      ],
      "name": "vote",
      "outputs": [],
      "payable": false,
      "stateMutability": "nonpayable",
      "type": "function",
      "signature": "0x0121b93f"
    },
    {
      "constant": false,
      "inputs": [],
      "name": "resetElection",
      "outputs": [],
      "payable": false,
      "stateMutability": "nonpayable",
      "type": "function",
      "signature": "0xe8f30523"
    }
  ],
  "bytecode": "0x60806040526000600360006101000a81548160ff02191690831515021790555034801561002b57600080fd5b50610b958061003b6000396000f3fe608060405260043610610099576000357c0100000000000000000000000000000000000000000000000000000000900463ffffffff1680630121b93f1461009e5780632d35a8a2146100d9578063320ad296146101045780633477ee2e1461013357806342c9a21d146101f557806343242daa14610232578063462e91ec146102ad578063a3ec138d14610375578063e8f30523146103de575b600080fd5b3480156100aa57600080fd5b506100d7600480360360208110156100c157600080fd5b81019080803590602001909291905050506103f5565b005b3480156100e557600080fd5b506100ee61067c565b6040518082815260200191505060405180910390f35b34801561011057600080fd5b50610119610682565b604051808215151515815260200191505060405180910390f35b34801561013f57600080fd5b5061016c6004803603602081101561015657600080fd5b8101908080359060200190929190505050610695565b6040518084815260200180602001838152602001828103825284818151815260200191508051906020019080838360005b838110156101b857808201518184015260208101905061019d565b50505050905090810190601f1680156101e55780820380516001836020036101000a031916815260200191505b5094505050505060405180910390f35b34801561020157600080fd5b506102306004803603602081101561021857600080fd5b81019080803515159060200190929190505050610757565b005b34801561023e57600080fd5b5061026b6004803603602081101561025557600080fd5b81019080803590602001909291905050506107af565b604051808273ffffffffffffffffffffffffffffffffffffffff1673ffffffffffffffffffffffffffffffffffffffff16815260200191505060405180910390f35b3480156102b957600080fd5b50610373600480360360208110156102d057600080fd5b81019080803590602001906401000000008111156102ed57600080fd5b8201836020820111156102ff57600080fd5b8035906020019184600183028401116401000000008311171561032157600080fd5b91908080601f016020809104026020016040519081016040528093929190818152602001838380828437600081840152601f19601f8201169050808301925050505050505091929192905050506107ed565b005b34801561038157600080fd5b506103c46004803603602081101561039857600080fd5b81019080803573ffffffffffffffffffffffffffffffffffffffff16906020019092919050505061086a565b604051808215151515815260200191505060405180910390f35b3480156103ea57600080fd5b506103f361088a565b005b6000803373ffffffffffffffffffffffffffffffffffffffff1673ffffffffffffffffffffffffffffffffffffffff16815260200190815260200160002060009054906101000a900460ff161515156104b6576040517f08c379a00000000000000000000000000000000000000000000000000000000081526004018080602001828103825260168152602001807f4f6e6c79206f6e6520766f74652070657220757365720000000000000000000081525060200191505060405180910390fd5b6000811180156104c857506002548111155b15156104d357600080fd5b600360009054906101000a900460ff161515610557576040517f08c379a00000000000000000000000000000000000000000000000000000000081526004018080602001828103825260158152602001807f456c656374696f6e206469646e2774207374617274000000000000000000000081525060200191505060405180910390fd5b60016000803373ffffffffffffffffffffffffffffffffffffffff1673ffffffffffffffffffffffffffffffffffffffff16815260200190815260200160002060006101000a81548160ff021916908315150217905550600160008281526020019081526020016000206002016000815480929190600101919050555060043390806001815401808255809150509060018203906000526020600020016000909192909190916101000a81548173ffffffffffffffffffffffffffffffffffffffff021916908373ffffffffffffffffffffffffffffffffffffffff16021790555050600560008154809291906001019190505550807ffff3c900d938d21d0990d786e819f29b8d05c1ef587b462b939609625b684b1660405160405180910390a250565b60025481565b600360009054906101000a900460ff1681565b6001602052806000526040600020600091509050806000015490806001018054600181600116156101000203166002900480601f0160208091040260200160405190810160405280929190818152602001828054600181600116156101000203166002900480156107475780601f1061071c57610100808354040283529160200191610747565b820191906000526020600020905b81548152906001019060200180831161072a57829003601f168201915b5050505050908060020154905083565b80600360006101000a81548160ff0219169083151502179055507fe0178d14156199d090fcf56ef0b2e2fd7879f90e74fecdbf5fc8236d4587119c81604051808215151515815260200191505060405180910390a150565b6004818154811015156107be57fe5b906000526020600020016000915054906101000a900473ffffffffffffffffffffffffffffffffffffffff1681565b60026000815480929190600101919050555060606040519081016040528060025481526020018281526020016000815250600160006002548152602001908152602001600020600082015181600001556020820151816001019080519060200190610859929190610a5b565b506040820151816002015590505050565b60006020528060005260406000206000915054906101000a900460ff1681565b600360009054906101000a900460ff1615151561090f576040517f08c379a00000000000000000000000000000000000000000000000000000000081526004018080602001828103825260148152602001807f53746f7020656c656374696f6e2066697273742100000000000000000000000081525060200191505060405180910390fd5b6000600190505b60025481111515610964576001600082815260200190815260200160002060008082016000905560018201600061094d9190610adb565b600282016000905550508080600101915050610916565b5060008090505b600554811015610a1257600080600060048481548110151561098957fe5b9060005260206000200160009054906101000a900473ffffffffffffffffffffffffffffffffffffffff1673ffffffffffffffffffffffffffffffffffffffff1673ffffffffffffffffffffffffffffffffffffffff16815260200190815260200160002060006101000a81548160ff021916908315150217905550808060010191505061096b565b5060026000905560046000610a279190610b23565b6005600090557fde63ea00669770dea2f85e87d5bb89633a75dc9e6e099dd332f0a5666bed9e0260405160405180910390a1565b828054600181600116156101000203166002900490600052602060002090601f016020900481019282601f10610a9c57805160ff1916838001178555610aca565b82800160010185558215610aca579182015b82811115610ac9578251825591602001919060010190610aae565b5b509050610ad79190610b44565b5090565b50805460018160011615610100020316600290046000825580601f10610b015750610b20565b601f016020900490600052602060002090810190610b1f9190610b44565b5b50565b5080546000825590600052602060002090810190610b419190610b44565b50565b610b6691905b80821115610b62576000816000905550600101610b4a565b5090565b9056fea165627a7a72305820e0c9f260af0a6750db986bcb505e3d89cffa9b520f992e825ecaad0c401883260029",
  "source": "pragma solidity >=0.4.24 <0.6.0;\n\ncontract Election {\n    // Model a Candidate\n    struct Candidate {\n        uint id;\n        string name;\n        uint voteCount;\n    }\n\n    // Store accounts that have voted\n    mapping(address => bool) public voters;\n    // Store Candidates\n    // Fetch Candidate\n    mapping(uint => Candidate) public candidates;\n    // Store Candidates Count\n    uint public candidatesCount;\n\n    bool public isElectionStarted = false;\n    \n    address[] public votersAddress;\n    \n    uint votersCount;\n\n    // voted event\n    event votedEvent (\n        uint indexed _candidateId\n    );\n    \n    event resetEvent();\n    event controlEvent(bool ElectionStatus);\n\n    /*function Election () public {\n        //addCandidate(\"Candidate 1\");\n        //addCandidate(\"Candidate 2\");\n    }*/\n\n    function addCandidate (string memory _name) public {\n        candidatesCount ++;\n        candidates[candidatesCount] = Candidate(candidatesCount, _name, 0);\n    }\n\n    function ElectionControl(bool decision) public {\n        isElectionStarted = decision;\n        emit controlEvent(decision);\n    }\n\n    function vote (uint _candidateId) public {\n        // require that they haven't voted before\n        require(!voters[msg.sender],\"Only one vote per user\");\n\n        // require a valid candidate\n        require(_candidateId > 0 && _candidateId <= candidatesCount);\n\n        require(isElectionStarted,\"Election didn't start\");\n    \n        // record that voter has voted\n        voters[msg.sender] = true;\n\n        // update candidate vote Count\n        candidates[_candidateId].voteCount ++;\n\n        votersAddress.push(msg.sender);\n        \n        votersCount++;\n\n        // trigger voted event\n        emit votedEvent(_candidateId);\n    }\n    \n    function resetElection() public{\n        require(!isElectionStarted,\"Stop election first!\");\n        \n        for(uint i=1; i<=candidatesCount; i++){\n            delete candidates[i];\n        }\n        \n        for(uint i=0; i<votersCount;i++){\n            voters[votersAddress[i]]=false;\n        }\n        delete candidatesCount;\n        delete votersAddress;\n        delete votersCount;\n\n        emit resetEvent();   \n    }\n}\n",
  "sourcePath": "E:/Final Year proj's/voting/contracts/Election.sol",
  "compiler": {
    "name": "solc",
    "version": "0.5.0+commit.1d4f565a.Emscripten.clang"
  },
  "schemaVersion": "3.0.1",
  "updatedAt": "2019-02-08T16:51:49.045Z",
  "devdoc": {
    "methods": {}
  },
  "userdoc": {
    "methods": {}
  }
}